:100000000C9436000C945E000C945E000C945E0020
:100010000C945E000C945E000C945E000C945E00E8
:100020000C945E000C945E000C945E000C945E00D8
:100030000C945E000C945E000C945E000C945E00C8
:100040000C9468000C945E000C945E000C945E00AE
:100050000C945E000C945E000C945E000C945E00A8
:100060000C945E000C945E00B401F60111241FBED6
:10007000CFEFD8E0DEBFCDBF21E0A0E1B1E001C00D
:100080001D92A533B207E1F711E0A0E0B1E0E4E78B
:10009000F8E002C005900D92A031B107D9F710E049
:1000A000C5E3D0E004C02197FE010E943502C433AD
:1000B000D107C9F70E9430010C942D040C94000064
:1000C000FC0180819181009711F00C94D702089572
:1000D0001F920F920FB60F9211242F933F938F937D
:1000E0009F93AF93BF938091150190911601A091BA
:1000F0001701B09118013091140123E0230F2D371F
:1001000058F50196A11DB11D20931401809315018E
:1001100090931601A0931701B093180180911001DC
:1001200090911101A0911201B09113010196A11DAE
:10013000B11D8093100190931101A0931201B0930F
:100140001301BF91AF919F918F913F912F910F908C
:100150000FBE0F901F90189526E8230F0296A11D41
:10016000B11DD2CFEF92FF920F931F93CF93DF93E6
:10017000EC017B018A0188819981009729F02A810D
:100180003B812417350788F4B8016F5F7F4F0E94C9
:100190006003009791F0998388831B830A832C81E5
:1001A0003D81232B11F4FC0110821D830C83B701C8
:1001B000888199810E9426040CC0888199810097CA
:1001C00011F00E94D702198218821D821C821B82A4
:1001D0001A82CE01DF91CF911F910F91FF90EF9086
:1001E0000895EF92FF920F931F93CF93DF93EC014B
:1001F0007B018C010C5F1F4F1D821C821F821E829F
:100200001986188650E040E06FE071E0C8010E9456
:10021000B2000E151F05E9F0F701608171816115CB
:10022000710559F044815581C801DF91CF911F912B
:100230000F91FF90EF900C94B2008C819D810097FC
:1002400011F00E94D7021D821C82198618861F8217
:100250001E82DF91CF911F910F91FF90EF90089533
:10026000789484B5826084BD84B5816084BD85B591
:10027000826085BD85B5816085BD80916E0081609D
:1002800080936E0010928100809181008260809343
:100290008100809181008160809381008091800045
:1002A0008160809380008091B10084608093B10070
:1002B0008091B00081608093B00080917A0084606A
:1002C00080937A0080917A00826080937A00809196
:1002D0007A00816080937A0080917A0080688093B0
:1002E0007A001092C100C0E0D0E080912901909185
:1002F0002A01019690932A018093290180911F0180
:100300009091200101969093200180931F012FB7B7
:10031000F8948091150190911601A0911701B09168
:1003200018012FBF4091190150911A0160911B01D2
:1003300070911C018C019D01041B150B260B370BC2
:10034000B901A801423351056105710540F0809360
:10035000190190931A01A0931B01B0931C012097DF
:1003600021F20E940000C1CFCF93DF9300D000D0D4
:1003700000D0CDB7DEB71A8219821C821B821E8282
:100380001D8244E050E066E071E0CE0101960E94DB
:10039000B200BE016F5F7F4F87E291E00E94F100E3
:1003A000CE0101960E9460001A8219821C821B8273
:1003B0001E821D8244E050E06BE071E0CE010196A8
:1003C0000E94B200BE016F5F7F4F8DE191E00E94FD
:1003D000F100CE0101960E94600026960FB6F894B7
:1003E000DEBF0FBECDBFDF91CF91089581E291E0D6
:1003F0000E9460008BE291E00C9460002F923F928B
:100400004F925F926F927F928F929F92AF92BF9224
:10041000CF92DF92EF92FF920F931F93CF93DF93D0
:10042000CDB7DEB7CA1BDB0B0FB6F894DEBF0FBE2D
:10043000CDBF09942A88398848885F846E847D847A
:100440008C849B84AA84B984C884DF80EE80FD807C
:100450000C811B81AA81B981CE0FD11D0FB6F894F2
:10046000DEBF0FBECDBFED010895EE0FFF1F05905B
:10047000F491E02D09940F931F93CF93DF93823073
:10048000910510F482E090E0E0913301F0913401A5
:1004900030E020E0B0E0A0E0309799F4211531057C
:1004A00009F44AC0281B390B24303105D8F58A815C
:1004B0009B816115710589F1FB0193838283FE01A4
:1004C00011C0408151810281138148175907E0F022
:1004D0004817590799F4109761F012960C931297E8
:1004E00013961C933296CF01DF91CF911F910F91FC
:1004F00008950093330110933401F4CF2115310591
:1005000051F04217530738F0A901DB019A01BD01F0
:10051000DF01F801C1CFEF01F9CF9093340180934F
:100520003301CDCFFE01E20FF31F8193919322504F
:10053000310939832883D7CF20913101309132019D
:10054000232B41F4209102013091030130933201B9
:1005500020933101209100013091010121153105D5
:1005600041F42DB73EB74091040150910501241B81
:10057000350BE0913101F0913201E217F307A0F45D
:100580002E1B3F0B2817390778F0AC014E5F5F4FE9
:100590002417350748F04E0F5F1F509332014093E8
:1005A0003101819391939FCFF0E0E0E09CCFCF9316
:1005B000DF930097E9F0FC01329713821282A09139
:1005C0003301B0913401ED0130E020E01097A1F447
:1005D00020813181820F931F2091310130913201AE
:1005E0002817390709F061C0F0933201E093310117
:1005F000DF91CF910895EA01CE17DF07E8F54A8130
:100600005B819E0141155105B1F7E901FB83EA8346
:1006100049915991C40FD51FEC17FD0761F48081F2
:1006200091810296840F951FE901998388838281C5
:1006300093819B838A83F0E0E0E012968D919C91F8
:1006400013970097B9F52D913C911197CD01029622
:10065000820F931F20913101309132012817390701
:1006600039F6309751F51092340110923301B0935E
:100670003201A0933101BCCFD383C2834081518129
:10068000840F951FC817D90761F44E5F5F4F8881AB
:100690009981480F591F518340838A819B8193839D
:1006A00082832115310509F0B0CFF0933401E09336
:1006B00033019ECFFD01DC01C0CF13821282D7CF60
:1006C000B0E0A0E0E6E6F3E00C9400028C010097B5
:1006D00051F4CB010E943B028C01C801CDB7DEB7BB
:1006E000E0E10C941C02FC01E60FF71F9C01225074
:1006F0003109E217F30708F49DC0D901CD91DC91CF
:100700001197C617D70798F0C530D10530F3CE0141
:1007100004978617970708F3C61BD70B2297C19338
:10072000D1936D937C93CF010E94D702D6CF5B010A
:10073000AC1ABD0A4C018C0E9D1EA0913301B091E4
:100740003401512C412CF12CE12C109731F5809182
:100750003101909132018815990509F05CC0461667
:10076000570608F058C08091000190910101009750
:1007700041F48DB79EB74091040150910501841B4F
:10078000950BE817F90708F055C0F0933201E09394
:100790003101F90171836083A0CF8D919C911197F4
:1007A00012966C90129713967C901397A815B90522
:1007B00059F56C0142E0C40ED11CCA14DB0420F1CF
:1007C000AC014A195B09DA011296159780F0628232
:1007D000738251834083D9016D937C93E114F104BA
:1007E00071F0D7011396FC93EE93129776CF229671
:1007F0008C0F9D1FF90191838083F301EFCFF0935C
:100800003401E093330169CF4816590608F42C01EE
:100810007D01D3019ACFCB010E943B027C0100975E
:1008200049F0AE01B8010E941D04C8010E94D70220
:10083000870153CF10E000E050CFFB01DC0102C084
:1008400001900D9241505040D8F70895FB01DC0112
:1008500001900D920020E1F7089510E0C5E3D0E08B
:1008600004C0FE010E9435022196C633D107C9F7A4
:04087000F894FFCF2A
:100874000000350180004E41563100434F4D310098
:00000001FF
